:100000000C94B1000C94CE000C94CE000C94CE0055
:100010000C94CE000C94CE000C94CE000C94CE0028
:100020000C94CE000C94CE000C9469030C94A103A4
:100030000C94CE000C94CE000C94CE000C94CE0008
:100040000C94CE000C94CE000C94CE000C94CE00F8
:100050000C94CE000C94CE000C94CE000C94CE00E8
:100060000C94CE000C94CE000C94CE000C94CE00D8
:100070000C94CE000C94CE000C94CE000C94CE00C8
:100080000C94CE000C94CE000C94CE000C94CE00B8
:100090000C94CE000C94CE000C94CE000C94CE00A8
:1000A0000C94CE000C94CE000C94CE000001000005
:1000B0004301120002000000014300030000FC00A5
:1000C0000401030904E8001202030904E000060326
:1000D000030904D600080803340031003000000092
:1000E00006034D003200000012034A002E002000DB
:1000F0004600690065006E00650000000403090405
:1001000009024300020100C032090400000102029A
:100110000100052400100105240101010424020648
:1001200005240600010705820310004009040100B0
:10013000020A0000000705030240000007058402D0
:100140004000001201000202000010C0167A0400F4
:1001500001010203010001C1120180360181360A4A
:10016000000011241FBECFEFDAE0DEBFCDBF11E0EB
:10017000A0E0B1E0EAE9FEE002C005900D92A830EF
:10018000B107D9F721E0A8E0B1E001C01D92A83184
:10019000B207E1F70E94F0050C940A070C940000E6
:1001A0008091E80080FFFCCF089581E08093D70024
:1001B00080EA8093D80082E189BD09B400FEFDCFBA
:1001C00080E98093D8001092E00010920B01109209
:1001D00008018CE08093E2007894089580910B01EF
:1001E00008959FB7F89480910B01811103C09FBFC0
:1001F0008FEF089583E08093E9008091E80085FF08
:10020000F6CF8091F1002091E80025FD03C02BE698
:100210002093E8009FBF08959FB7F89480910B0149
:10022000882329F083E08093E9008091F2009FBF4A
:10023000089580910B01882359F08FB7F89493E0CB
:100240009093E9002BE69091E80095FD02C08FBFE6
:1002500008952093E800F7CF90910B01911102C00F
:100260008FEF08959FB7F89424E02093E900209140
:100270000901222341F02091E80025FD02C09FBF23
:10028000EFCF109209012091E400275E34E0409105
:10029000E80045FD12C09FBF9091E400921304C096
:1002A00081E080930901DCCF90910B019923C1F289
:1002B0009FB7F8943093E900EACF8093F1008091E2
:1002C000E80085FD03C08AE38093E80085E0809321
:1002D0000A019FBF80E0089590910B01992351F08E
:1002E0009FB7F89424E02093E9002091E80025FDD1
:1002F00003C09FBF8FEF08958093F1008091E800C5
:1003000085FD03C08AE38093E80085E080930A01BD
:100310009FBF80E0089520910B01211102C08FEF53
:1003200008952FB7F89434E03093E9003091090133
:10033000332341F03091E80035FD02C02FBFEFCFED
:100340001092090134E040E45AE3A5E0611571051B
:1003500019F42FBF80E00895E091E400E75EF0918A
:10036000E800F5FD12C02FBF2091E4002E1304C059
:1003700081E080930901D3CF20910B01222379F2F0
:100380002FB7F8943093E900EACFE091F200B42F50
:10039000BE1BB617170611F008F0B62FEB2FF0E0D2
:1003A0006E1B7F0BB13408F03FC1E45FF84F0C9433
:1003B0009E06FC0181918093F100CF01FC018191A7
:1003C0008093F100CF01FC0181918093F100CF0176
:1003D000FC0181918093F100CF01FC018191809318
:1003E000F100CF01FC0181918093F100CF01FC016C
:1003F00081918093F100CF01FC0181918093F10004
:10040000CF01FC0181918093F100CF01FC0181912A
:100410008093F100CF01FC0181918093F100CF0125
:10042000FC0181918093F100CF01FC0181918093C7
:10043000F100CF01FC0181918093F100CF01FC011B
:1004400081918093F100CF01FC0181918093F100B3
:10045000CF01FC0181918093F100CF01FC018191DA
:100460008093F100CF01FC0181918093F100CF01D5
:10047000FC0181918093F100CF01FC018191809377
:10048000F100CF01FC0181918093F100CF01FC01CB
:1004900081918093F100CF01FC0181918093F10063
:1004A000CF01FC0181918093F100CF01FC0181918A
:1004B0008093F100CF01FC0181918093F100CF0185
:1004C000FC0181918093F100CF01FC018191809327
:1004D000F100CF01FC0181918093F100CF01FC017B
:1004E00081918093F100CF01FC0181918093F10013
:1004F000CF01FC0181918093F100CF01FC0181913A
:100500008093F100CF01FC0181918093F100CF0134
:10051000FC0181918093F100CF01FC0181918093D6
:10052000F100CF01FC0181918093F100CF01FC012A
:1005300081918093F100CF01FC0181918093F100C2
:10054000CF01FC0181918093F100CF01FC018191E9
:100550008093F100CF01FC0181918093F100CF01E4
:10056000FC0181918093F100CF01FC018191809386
:10057000F100CF01FC0181918093F100CF01FC01DA
:1005800081918093F100CF01FC0181918093F10072
:10059000CF01FC0181918093F100CF01FC01819199
:1005A0008093F100CF01FC0181918093F100CF0194
:1005B000FC0181918093F100CF01FC018191809336
:1005C000F100CF01FC0181918093F100CF01FC018A
:1005D00081918093F100CF01FC0181918093F10022
:1005E000CF01FC0181918093F100CF01FC01819149
:1005F0008093F100CF01FC0181918093F100CF0144
:10060000FC0181918093F100CF01FC0181918093E5
:10061000F100CF01FC0181918093F100CF01FC0139
:1006200081918093F100CF01FC0181918093F100D1
:10063000CF01E091E800E5FF5093E800A0930A01A4
:1006400085CE8FB7F89490910A01992341F094E0F8
:100650009093E9009AE39093E80010920A018FBF0B
:100660000895809104010895809105010895809175
:10067000060108958091080108959FB7F89420918C
:100680000B01211103C09FBF8FEF089522E020933B
:10069000E9003091E80035FFF6CF31EA3093F10000
:1006A00030E23093F1001092F1001092F1001092BC
:1006B000F1001092F1002093F1001092F10080936C
:1006C000F1001092F1008AE38093E8009FBF80E080
:1006D00008951F921FB61F9211248F939F938091AC
:1006E000E1001092E10083FF11C01092E90091E057
:1006F0009093EB001092EC0092E19093ED0098E063
:100700009093F00010920B011092080182FF13C029
:1007100080910B01882379F080910A01882359F098
:10072000815080930A01811106C084E08093E90022
:100730008AE38093E8009F918F911F901FBE1F90C6
:1007400018951F920F920FB60F921124EF92FF92FD
:100750000F931F932F933F934F935F936F937F93C9
:100760008F939F93AF93BF93CF93DF93EF93FF93B9
:100770001092E9008091E80083FF72C0D091F100EF
:10078000C091F100E090F1008091F100F82E00910D
:10079000F1008091F100182F8091F1009091F1000B
:1007A00022EF2093E800C63009F066C02CEA30E062
:1007B000F90145915491E416F50609F04AC0F90192
:1007C0003296459154910417150709F042C0F9017A
:1007D000349645915491F9013696E4918F3F9105F5
:1007E00019F010F08FEF90E0E81708F48E2F3EEF2D
:1007F0009091E800292F2570D9F392FD13C0982F0E
:10080000813108F090E1FA01292F21112FC0490F01
:10081000511DE82FE91B9E2F3093E800E11124C001
:10082000803110F5FF91EF91DF91CF91BF91AF91A2
:100830009F918F917F916F915F914F913F912F91F8
:100840001F910F91FF90EF900F900FBE0F901F9090
:100850001895295F3F4F40E0263D340709F0A8CFA7
:1008600081E28093EB00DECF892FC2CF6491609349
:10087000F10021503196C9CFC53051F48EEF8093ED
:10088000E8000E94D0008E2D80688093E300CACFDC
:10089000C93069F5D111E4CFE0920B011092080143
:1008A00010920A018EEF8093E80021E085E591E047
:1008B0002093E900AC014F5F5F4FFC01349130930E
:1008C000EB00332391F0FA0144914093EC00319610
:1008D000E4910396E093ED002F5F253049F78EE118
:1008E0008093EA001092EA009DCFCA01F5CFC8308C
:1008F00069F4D03809F0B4CF0E94D00080910B0188
:100900008093F1008EEF8093E8008CCFC13289F4A0
:10091000D13A09F0A5CF0E94D00080E091E0FC011F
:100920002191CF012093F100F1E087309F07B9F7C3
:10093000E9CFC032B1F4D13209F092CF8091E80012
:1009400082FFFCCF80E091E02091F100FC01219337
:10095000CF01F1E087309F07B9F78BEF8093E80074
:10096000D1CFC23241F4D13209F07ACFE0920801FE
:100970000E94D000C7CFC11112C00E94D000D2384F
:1009800049F40093E900C091EB00C5FBCC27C0F906
:100990001092E900C093F1001092F100B3CF8C2FB8
:1009A0008D7F813009F05CCFD23009F059CFEF282C
:1009B00009F056CF0F778FEF800F843008F050CFBB
:1009C0008EEF8093E8000093E900C33009F448CF2C
:1009D00089E18093EB0081E090E001C0880F0A95E7
:1009E000EAF77ECF1F93CF93DF93EC01FE011491C2
:1009F000112351F01A3019F48DE00E942C01812F3F
:100A00000E942C012196F2CFDF91CF911F91089582
:100A100097E38A3008F490E3890F0C942C01CF936C
:100A2000C82F82958F700E9408058C2F8F70CF91F0
:100A30000C940805CF93C82F892F0E940F058C2F87
:100A4000CF910C940F050C940F05EF92FF920F932A
:100A50001F93CF93DF9300D000D000D00F92CDB77B
:100A6000DEB78E010F5F1F4F27E0F80111922A9524
:100A7000E9F74AE0B8010E94A4067E01F8E0EF0E13
:100A8000F11CF80181918F0181110E942C010E153A
:100A90001F05B9F727960FB6F894DEBF0FBECDBF7E
:100AA000DF91CF911F910F91FF90EF900895EF92FA
:100AB000FF920F931F93CF93DF9300D000D000D00D
:100AC000CDB7DEB78E010F5F1F4F26E0F801119200
:100AD0002A95E9F74AE0B8010E94E0067E01F6E0B7
:100AE000EF0EF11CF80181918F0181110E942C0100
:100AF0000E151F05B9F726960FB6F894DEBF0FBE88
:100B0000CDBFDF91CF911F910F91FF90EF9008958E
:100B1000EF92FF920F931F93CF93DF93CDB7DEB782
:100B20002B970FB6F894DEBF0FBECDBF8E010F5FBF
:100B30001F4F2BE0F80111922A95E9F72AE0A8014E
:100B40000E94AF067E01FCE0EF0EF11CF8018191DE
:100B50008F0181110E942C010E151F05B9F72B96EC
:100B60000FB6F894DEBF0FBECDBFDF91CF911F91BE
:100B70000F91FF90EF900895EF92FF920F931F93C4
:100B8000CF93DF93CDB7DEB72B970FB6F894DEBFC8
:100B90000FBECDBF8E010F5F1F4F2BE0F8011192EA
:100BA0002A95E9F72AE0A8010E94BE067E01FBE033
:100BB000EF0EF11CF80181918F0181110E942C012F
:100BC0000E151F05B9F72B960FB6F894DEBF0FBEB2
:100BD000CDBFDF91CF911F910F91FF90EF900895BE
:100BE00080E880936100109261003F98269A259AD0
:100BF000229A0E94D500C5E4D5E089E0C82E8DE395
:100C0000D82EE12CF12CC0939100C59BFECF809192
:100C10009600909197009093150180931401C59AC6
:100C2000D0939100C59BFECF809196009091970044
:100C300090930D0180930C01C59AC0939100C59BC0
:100C4000FECF80919600909197009093130180932E
:100C50001201C59A809114019091150140910C01E7
:100C600050910D01841795070CF044C0209112019A
:100C70003091130142175307ECF5281B390B032E53
:100C8000000C440B550BC701B6010E947C06309343
:100C90000F0120930E012E982D9880910E019091B6
:100CA0000F019C0129553240273C310518F42E9A3A
:100CB0002D9808C09C01255131092930310520F4B7
:100CC0002E982D9A2A9808C0875991092E982D9808
:100CD00085399105B8F72A9A80910E0190910F01FC
:100CE0000E9457058FE591E00E94F2042E982D98FE
:100CF0002A9889CF2E98DCCFA1E21A2EAA1BBB1B03
:100D0000FD010DC0AA1FBB1FEE1FFF1FA217B307D7
:100D1000E407F50720F0A21BB30BE40BF50B661FED
:100D2000771F881F991F1A9469F7609570958095B1
:100D300090959B01AC01BD01CF010895EE0FFF1FFF
:100D40000590F491E02D0994BB274A3031F49923A2
:100D500022F4BDE2909581959F4F0C94E106BB274C
:100D60002A3051F4992342F4BDE290958095709514
:100D700061957F4F8F4F9F4F0C94BF06BB27FA01A1
:100D8000A62F6217710581059105330B30FB66F0C4
:100D9000AA27660F771F881F991FAA1FA21710F096
:100DA000A21B63953850A9F7A05DAA3308F0A95D8E
:100DB000A19336F7B111B1931082CA010C94FA06CF
:100DC000BB27FB015527AA27880F991FAA1FA41725
:100DD00010F0A41B83955051B9F7A05DAA3308F019
:100DE000A95DA193009779F7B111B1931192CB014D
:100DF0000C94FA06DC01FC01672F71917723E1F76F
:100E0000329704C07C916D9370836291AE17BF07D7
:100E1000C8F30895F894FFCF190314030F030A03CE
:100E200005030003FB02F602F102EC02E702E20214
:100E3000DD02D802D302CE02C902C402BF02BA0246
:100E4000B502B002AB02A602A1029C029702920276
:100E50008D02880283027E02790274026F026A02A6
:100E6000650260025B02560251024C0247024202D6
:100E70003D02380233022E02290224021F021A0206
:100E8000150210020B0206020102FC01F701F20139
:0A0E9000ED01E801E301DE01D901E4
:080E9A0000E100000000080067
:00000001FF
